{
  "_format": "hh-sol-artifact-1",
  "contractName": "Farm",
  "sourceName": "contracts/Farm.sol",
  "abi": [
    {
      "inputs": [
        {
          "internalType": "contract RewardsToken",
          "name": "_rewardsToken",
          "type": "address"
        }
      ],
      "stateMutability": "payable",
      "type": "constructor"
    },
    {
      "anonymous": false,
      "inputs": [
        {
          "indexed": true,
          "internalType": "address",
          "name": "from",
          "type": "address"
        },
        {
          "indexed": false,
          "internalType": "uint256",
          "name": "amount",
          "type": "uint256"
        }
      ],
      "name": "Stake",
      "type": "event"
    },
    {
      "anonymous": false,
      "inputs": [
        {
          "indexed": true,
          "internalType": "address",
          "name": "from",
          "type": "address"
        },
        {
          "indexed": false,
          "internalType": "uint256",
          "name": "amount",
          "type": "uint256"
        }
      ],
      "name": "Unstake",
      "type": "event"
    },
    {
      "anonymous": false,
      "inputs": [
        {
          "indexed": true,
          "internalType": "address",
          "name": "to",
          "type": "address"
        },
        {
          "indexed": false,
          "internalType": "uint256",
          "name": "amount",
          "type": "uint256"
        }
      ],
      "name": "YieldWithdraw",
      "type": "event"
    },
    {
      "inputs": [
        {
          "internalType": "address",
          "name": "user",
          "type": "address"
        }
      ],
      "name": "calculateYieldTime",
      "outputs": [
        {
          "internalType": "uint256",
          "name": "",
          "type": "uint256"
        }
      ],
      "stateMutability": "view",
      "type": "function"
    },
    {
      "inputs": [
        {
          "internalType": "address",
          "name": "user",
          "type": "address"
        }
      ],
      "name": "calculateYieldTotal",
      "outputs": [
        {
          "internalType": "uint256",
          "name": "",
          "type": "uint256"
        }
      ],
      "stateMutability": "view",
      "type": "function"
    },
    {
      "inputs": [
        {
          "internalType": "address",
          "name": "",
          "type": "address"
        }
      ],
      "name": "isStaking",
      "outputs": [
        {
          "internalType": "bool",
          "name": "",
          "type": "bool"
        }
      ],
      "stateMutability": "view",
      "type": "function"
    },
    {
      "inputs": [],
      "name": "name",
      "outputs": [
        {
          "internalType": "string",
          "name": "",
          "type": "string"
        }
      ],
      "stateMutability": "view",
      "type": "function"
    },
    {
      "inputs": [],
      "name": "rewardsToken",
      "outputs": [
        {
          "internalType": "contract RewardsToken",
          "name": "",
          "type": "address"
        }
      ],
      "stateMutability": "view",
      "type": "function"
    },
    {
      "inputs": [],
      "name": "stake",
      "outputs": [],
      "stateMutability": "payable",
      "type": "function"
    },
    {
      "inputs": [
        {
          "internalType": "address",
          "name": "",
          "type": "address"
        }
      ],
      "name": "stakingBalance",
      "outputs": [
        {
          "internalType": "uint256",
          "name": "",
          "type": "uint256"
        }
      ],
      "stateMutability": "view",
      "type": "function"
    },
    {
      "inputs": [
        {
          "internalType": "address",
          "name": "",
          "type": "address"
        }
      ],
      "name": "startTime",
      "outputs": [
        {
          "internalType": "uint256",
          "name": "",
          "type": "uint256"
        }
      ],
      "stateMutability": "view",
      "type": "function"
    },
    {
      "inputs": [
        {
          "internalType": "address",
          "name": "",
          "type": "address"
        }
      ],
      "name": "tokenBalance",
      "outputs": [
        {
          "internalType": "uint256",
          "name": "",
          "type": "uint256"
        }
      ],
      "stateMutability": "view",
      "type": "function"
    },
    {
      "inputs": [
        {
          "internalType": "uint256",
          "name": "amount",
          "type": "uint256"
        },
        {
          "internalType": "address payable",
          "name": "_to",
          "type": "address"
        }
      ],
      "name": "unstake",
      "outputs": [],
      "stateMutability": "payable",
      "type": "function"
    },
    {
      "inputs": [],
      "name": "withdrawYield",
      "outputs": [],
      "stateMutability": "nonpayable",
      "type": "function"
    },
    {
      "stateMutability": "payable",
      "type": "receive"
    }
  ],
  "bytecode": "0x60806040526040518060400160405280600981526020017f546f6b656e4661726d00000000000000000000000000000000000000000000008152506004908051906020019062000051929190620000bf565b506040516200157c3803806200157c833981810160405281019062000077919062000186565b80600560006101000a81548173ffffffffffffffffffffffffffffffffffffffff021916908373ffffffffffffffffffffffffffffffffffffffff1602179055505062000279565b828054620000cd90620001fa565b90600052602060002090601f016020900481019282620000f157600085556200013d565b82601f106200010c57805160ff19168380011785556200013d565b828001600101855582156200013d579182015b828111156200013c5782518255916020019190600101906200011f565b5b5090506200014c919062000150565b5090565b5b808211156200016b57600081600090555060010162000151565b5090565b60008151905062000180816200025f565b92915050565b6000602082840312156200019957600080fd5b6000620001a9848285016200016f565b91505092915050565b6000620001bf82620001da565b9050919050565b6000620001d382620001b2565b9050919050565b600073ffffffffffffffffffffffffffffffffffffffff82169050919050565b600060028204905060018216806200021357607f821691505b602082108114156200022a576200022962000230565b5b50919050565b7f4e487b7100000000000000000000000000000000000000000000000000000000600052602260045260246000fd5b6200026a81620001c6565b81146200027657600080fd5b50565b6112f380620002896000396000f3fe6080604052600436106100a05760003560e01c80636f49712b116100645780636f49712b146101985780638381e182146101d5578063980d6116146101f1578063d1af0c7d1461022e578063e507a8a414610259578063eedc966a14610270576100a7565b806306872661146100ac57806306fdde03146100e95780633a4b66f11461011457806345bc78ab1461011e5780636e1dc66e1461015b576100a7565b366100a757005b600080fd5b3480156100b857600080fd5b506100d360048036038101906100ce9190610d0c565b6102ad565b6040516100e09190610f30565b60405180910390f35b3480156100f557600080fd5b506100fe610353565b60405161010b9190610eae565b60405180910390f35b61011c6103e1565b005b34801561012a57600080fd5b5061014560048036038101906101409190610d0c565b610622565b6040516101529190610f30565b60405180910390f35b34801561016757600080fd5b50610182600480360381019061017d9190610d0c565b61063a565b60405161018f9190610f30565b60405180910390f35b3480156101a457600080fd5b506101bf60048036038101906101ba9190610d0c565b610652565b6040516101cc9190610e78565b60405180910390f35b6101ef60048036038101906101ea9190610d35565b610672565b005b3480156101fd57600080fd5b5061021860048036038101906102139190610d0c565b610992565b6040516102259190610f30565b60405180910390f35b34801561023a57600080fd5b506102436109f1565b6040516102509190610e93565b60405180910390f35b34801561026557600080fd5b5061026e610a17565b005b34801561027c57600080fd5b5061029760048036038101906102929190610d0c565b610cb5565b6040516102a49190610f30565b60405180910390f35b600080670de0b6b3a76400006102c284610992565b6102cc9190610fee565b90506000620151809050600081836102e49190610fbd565b90506000670de0b6b3a7640000826000808973ffffffffffffffffffffffffffffffffffffffff1673ffffffffffffffffffffffffffffffffffffffff1681526020019081526020016000205461033b9190610fee565b6103459190610fbd565b905080945050505050919050565b600480546103609061112d565b80601f016020809104026020016040519081016040528092919081815260200182805461038c9061112d565b80156103d95780601f106103ae576101008083540402835291602001916103d9565b820191906000526020600020905b8154815290600101906020018083116103bc57829003601f168201915b505050505081565b60003411610424576040517f08c379a000000000000000000000000000000000000000000000000000000000815260040161041b90610ef0565b60405180910390fd5b60011515600160003373ffffffffffffffffffffffffffffffffffffffff1673ffffffffffffffffffffffffffffffffffffffff16815260200190815260200160002060009054906101000a900460ff16151514156104e2576000610488336102ad565b905080600360003373ffffffffffffffffffffffffffffffffffffffff1673ffffffffffffffffffffffffffffffffffffffff16815260200190815260200160002060008282546104d99190610f67565b92505081905550505b346000803373ffffffffffffffffffffffffffffffffffffffff1673ffffffffffffffffffffffffffffffffffffffff16815260200190815260200160002060008282546105309190610f67565b9250508190555042600260003373ffffffffffffffffffffffffffffffffffffffff1673ffffffffffffffffffffffffffffffffffffffff1681526020019081526020016000208190555060018060003373ffffffffffffffffffffffffffffffffffffffff1673ffffffffffffffffffffffffffffffffffffffff16815260200190815260200160002060006101000a81548160ff0219169083151502179055503373ffffffffffffffffffffffffffffffffffffffff167febedb8b3c678666e7f36970bc8f57abf6d8fa2e828c0da91ea5b75bf68ed101a346040516106189190610f30565b60405180910390a2565b60006020528060005260406000206000915090505481565b60026020528060005260406000206000915090505481565b60016020528060005260406000206000915054906101000a900460ff1681565b600180156106be5750816000803373ffffffffffffffffffffffffffffffffffffffff1673ffffffffffffffffffffffffffffffffffffffff1681526020019081526020016000205410155b600160003373ffffffffffffffffffffffffffffffffffffffff1673ffffffffffffffffffffffffffffffffffffffff16815260200190815260200160002060006101000a81548160ff0219169083151502179055610752576040517f08c379a000000000000000000000000000000000000000000000000000000000815260040161074990610f10565b60405180910390fd5b600061075d336102ad565b905042600260003373ffffffffffffffffffffffffffffffffffffffff1673ffffffffffffffffffffffffffffffffffffffff16815260200190815260200160002081905550600083905060009350806000803373ffffffffffffffffffffffffffffffffffffffff1673ffffffffffffffffffffffffffffffffffffffff16815260200190815260200160002060008282546107fa9190611048565b925050819055508273ffffffffffffffffffffffffffffffffffffffff166108fc829081150290604051600060405180830381858888f19350505050158015610847573d6000803e3d6000fd5b5081600360003373ffffffffffffffffffffffffffffffffffffffff1673ffffffffffffffffffffffffffffffffffffffff16815260200190815260200160002060008282546108979190610f67565b9250508190555060008060003373ffffffffffffffffffffffffffffffffffffffff1673ffffffffffffffffffffffffffffffffffffffff16815260200190815260200160002054141561093e576000600160003373ffffffffffffffffffffffffffffffffffffffff1673ffffffffffffffffffffffffffffffffffffffff16815260200190815260200160002060006101000a81548160ff0219169083151502179055505b3373ffffffffffffffffffffffffffffffffffffffff167f85082129d87b2fe11527cb1b3b7a520aeb5aa6913f88a3d8757fe40d1db02fdd856040516109849190610f30565b60405180910390a250505050565b6000804290506000600260008573ffffffffffffffffffffffffffffffffffffffff1673ffffffffffffffffffffffffffffffffffffffff16815260200190815260200160002054826109e59190611048565b90508092505050919050565b600560009054906101000a900473ffffffffffffffffffffffffffffffffffffffff1681565b6000610a22336102ad565b90506000811180610a7257506000600360003373ffffffffffffffffffffffffffffffffffffffff1673ffffffffffffffffffffffffffffffffffffffff16815260200190815260200160002054115b610ab1576040517f08c379a0000000000000000000000000000000000000000000000000000000008152600401610aa890610ed0565b60405180910390fd5b6000600360003373ffffffffffffffffffffffffffffffffffffffff1673ffffffffffffffffffffffffffffffffffffffff1681526020019081526020016000205414610b91576000600360003373ffffffffffffffffffffffffffffffffffffffff1673ffffffffffffffffffffffffffffffffffffffff1681526020019081526020016000205490506000600360003373ffffffffffffffffffffffffffffffffffffffff1673ffffffffffffffffffffffffffffffffffffffff168152602001908152602001600020819055508082610b8d9190610f67565b9150505b42600260003373ffffffffffffffffffffffffffffffffffffffff1673ffffffffffffffffffffffffffffffffffffffff16815260200190815260200160002081905550600560009054906101000a900473ffffffffffffffffffffffffffffffffffffffff1673ffffffffffffffffffffffffffffffffffffffff166340c10f1933836040518363ffffffff1660e01b8152600401610c32929190610e4f565b600060405180830381600087803b158015610c4c57600080fd5b505af1158015610c60573d6000803e3d6000fd5b505050503373ffffffffffffffffffffffffffffffffffffffff167f92044e3943309ee5950e21bc7421d02c1df75f0df33c0d97c1143687b49a4c5782604051610caa9190610f30565b60405180910390a250565b60036020528060005260406000206000915090505481565b600081359050610cdc81611278565b92915050565b600081359050610cf18161128f565b92915050565b600081359050610d06816112a6565b92915050565b600060208284031215610d1e57600080fd5b6000610d2c84828501610ccd565b91505092915050565b60008060408385031215610d4857600080fd5b6000610d5685828601610cf7565b9250506020610d6785828601610ce2565b9150509250929050565b610d7a8161107c565b82525050565b610d89816110a0565b82525050565b610d98816110d6565b82525050565b6000610da982610f4b565b610db38185610f56565b9350610dc38185602086016110fa565b610dcc816111ec565b840191505092915050565b6000610de4601383610f56565b9150610def826111fd565b602082019050919050565b6000610e07601c83610f56565b9150610e1282611226565b602082019050919050565b6000610e2a601283610f56565b9150610e358261124f565b602082019050919050565b610e49816110cc565b82525050565b6000604082019050610e646000830185610d71565b610e716020830184610e40565b9392505050565b6000602082019050610e8d6000830184610d80565b92915050565b6000602082019050610ea86000830184610d8f565b92915050565b60006020820190508181036000830152610ec88184610d9e565b905092915050565b60006020820190508181036000830152610ee981610dd7565b9050919050565b60006020820190508181036000830152610f0981610dfa565b9050919050565b60006020820190508181036000830152610f2981610e1d565b9050919050565b6000602082019050610f456000830184610e40565b92915050565b600081519050919050565b600082825260208201905092915050565b6000610f72826110cc565b9150610f7d836110cc565b9250827fffffffffffffffffffffffffffffffffffffffffffffffffffffffffffffffff03821115610fb257610fb161115f565b5b828201905092915050565b6000610fc8826110cc565b9150610fd3836110cc565b925082610fe357610fe261118e565b5b828204905092915050565b6000610ff9826110cc565b9150611004836110cc565b9250817fffffffffffffffffffffffffffffffffffffffffffffffffffffffffffffffff048311821515161561103d5761103c61115f565b5b828202905092915050565b6000611053826110cc565b915061105e836110cc565b9250828210156110715761107061115f565b5b828203905092915050565b6000611087826110ac565b9050919050565b6000611099826110ac565b9050919050565b60008115159050919050565b600073ffffffffffffffffffffffffffffffffffffffff82169050919050565b6000819050919050565b60006110e1826110e8565b9050919050565b60006110f3826110ac565b9050919050565b60005b838110156111185780820151818401526020810190506110fd565b83811115611127576000848401525b50505050565b6000600282049050600182168061114557607f821691505b60208210811415611159576111586111bd565b5b50919050565b7f4e487b7100000000000000000000000000000000000000000000000000000000600052601160045260246000fd5b7f4e487b7100000000000000000000000000000000000000000000000000000000600052601260045260246000fd5b7f4e487b7100000000000000000000000000000000000000000000000000000000600052602260045260246000fd5b6000601f19601f8301169050919050565b7f4e6f7468696e6720746f20776974686472617700000000000000000000000000600082015250565b7f596f752063616e6e6f74207374616b65207a65726f20746f6b656e7300000000600082015250565b7f4e6f7468696e6720746f20756e7374616b650000000000000000000000000000600082015250565b6112818161107c565b811461128c57600080fd5b50565b6112988161108e565b81146112a357600080fd5b50565b6112af816110cc565b81146112ba57600080fd5b5056fea264697066735822122079d395803fcf0b1a7ab58d1a1e20e8a8dd5fb9985459d174e0d444492063ae6564736f6c63430008040033",
  "linkReferences": {},
  "deployedLinkReferences": {}
}